{
  "contractName": "Game",
  "abi": [
    {
      "inputs": [],
      "stateMutability": "nonpayable",
      "type": "constructor"
    },
    {
      "anonymous": false,
      "inputs": [
        {
          "indexed": false,
          "internalType": "address",
          "name": "player",
          "type": "address"
        },
        {
          "indexed": false,
          "internalType": "uint256",
          "name": "score",
          "type": "uint256"
        }
      ],
      "name": "endedGame",
      "type": "event"
    },
    {
      "anonymous": false,
      "inputs": [
        {
          "indexed": false,
          "internalType": "address",
          "name": "player",
          "type": "address"
        },
        {
          "indexed": false,
          "internalType": "bool",
          "name": "paid",
          "type": "bool"
        },
        {
          "indexed": false,
          "internalType": "uint256",
          "name": "game",
          "type": "uint256"
        }
      ],
      "name": "startedGame",
      "type": "event"
    },
    {
      "inputs": [
        {
          "internalType": "address",
          "name": "",
          "type": "address"
        }
      ],
      "name": "pacmanHighscores",
      "outputs": [
        {
          "internalType": "uint256",
          "name": "",
          "type": "uint256"
        }
      ],
      "stateMutability": "view",
      "type": "function"
    },
    {
      "inputs": [
        {
          "internalType": "address",
          "name": "",
          "type": "address"
        }
      ],
      "name": "snakeHighscores",
      "outputs": [
        {
          "internalType": "uint256",
          "name": "",
          "type": "uint256"
        }
      ],
      "stateMutability": "view",
      "type": "function"
    },
    {
      "inputs": [
        {
          "internalType": "address",
          "name": "",
          "type": "address"
        }
      ],
      "name": "spaceHighscores",
      "outputs": [
        {
          "internalType": "uint256",
          "name": "",
          "type": "uint256"
        }
      ],
      "stateMutability": "view",
      "type": "function"
    },
    {
      "inputs": [],
      "name": "getOwner",
      "outputs": [
        {
          "internalType": "address",
          "name": "",
          "type": "address"
        }
      ],
      "stateMutability": "view",
      "type": "function"
    },
    {
      "inputs": [
        {
          "internalType": "uint256",
          "name": "game",
          "type": "uint256"
        }
      ],
      "name": "startGame",
      "outputs": [],
      "stateMutability": "payable",
      "type": "function"
    },
    {
      "inputs": [
        {
          "internalType": "uint256",
          "name": "game",
          "type": "uint256"
        },
        {
          "internalType": "uint256",
          "name": "score",
          "type": "uint256"
        }
      ],
      "name": "endGame",
      "outputs": [],
      "stateMutability": "nonpayable",
      "type": "function"
    }
  ],
  "bytecode": "0x608060405234801561001057600080fd5b50336000806101000a81548173ffffffffffffffffffffffffffffffffffffffff021916908373ffffffffffffffffffffffffffffffffffffffff16021790555061079d806100606000396000f3fe6080604052600436106100555760003560e01c806310003d501461005a578063663b22fc146100975780636becdbc9146100d4578063893d20e8146101115780639f98985d1461013c578063e5ed1d5914610165575b600080fd5b34801561006657600080fd5b50610081600480360381019061007c919061054b565b610181565b60405161008e9190610591565b60405180910390f35b3480156100a357600080fd5b506100be60048036038101906100b9919061054b565b610199565b6040516100cb9190610591565b60405180910390f35b3480156100e057600080fd5b506100fb60048036038101906100f6919061054b565b6101b1565b6040516101089190610591565b60405180910390f35b34801561011d57600080fd5b506101266101c9565b60405161013391906105bb565b60405180910390f35b34801561014857600080fd5b50610163600480360381019061015e9190610602565b6101f2565b005b61017f600480360381019061017a9190610642565b6103f8565b005b60036020528060005260406000206000915090505481565b60026020528060005260406000206000915090505481565b60016020528060005260406000206000915090505481565b60008060009054906101000a900473ffffffffffffffffffffffffffffffffffffffff16905090565b6000820361028b57600160003373ffffffffffffffffffffffffffffffffffffffff1673ffffffffffffffffffffffffffffffffffffffff168152602001908152602001600020548111156102865780600160003373ffffffffffffffffffffffffffffffffffffffff1673ffffffffffffffffffffffffffffffffffffffff168152602001908152602001600020819055505b6103bb565b6001820361032457600260003373ffffffffffffffffffffffffffffffffffffffff1673ffffffffffffffffffffffffffffffffffffffff1681526020019081526020016000205481111561031f5780600260003373ffffffffffffffffffffffffffffffffffffffff1673ffffffffffffffffffffffffffffffffffffffff168152602001908152602001600020819055505b6103ba565b600282036103b957600360003373ffffffffffffffffffffffffffffffffffffffff1673ffffffffffffffffffffffffffffffffffffffff168152602001908152602001600020548111156103b85780600360003373ffffffffffffffffffffffffffffffffffffffff1673ffffffffffffffffffffffffffffffffffffffff168152602001908152602001600020819055505b5b5b5b7fa604717cc5d011ef618e83bc17316708329ef22c4736f59ed53ace421b74d7e033826040516103ec92919061066f565b60405180910390a15050565b670de0b6b3a76400003414610442576040517f08c379a0000000000000000000000000000000000000000000000000000000008152600401610439906106f5565b60405180910390fd5b60008054906101000a900473ffffffffffffffffffffffffffffffffffffffff1673ffffffffffffffffffffffffffffffffffffffff166108fc349081150290604051600060405180830381858888f193505050501580156104a8573d6000803e3d6000fd5b507f1e1129c29c03c48ecf57543a4c7d47af3130f0a38d040b11c267f72bfce1ed5e336001836040516104dd93929190610730565b60405180910390a150565b600080fd5b600073ffffffffffffffffffffffffffffffffffffffff82169050919050565b6000610518826104ed565b9050919050565b6105288161050d565b811461053357600080fd5b50565b6000813590506105458161051f565b92915050565b600060208284031215610561576105606104e8565b5b600061056f84828501610536565b91505092915050565b6000819050919050565b61058b81610578565b82525050565b60006020820190506105a66000830184610582565b92915050565b6105b58161050d565b82525050565b60006020820190506105d060008301846105ac565b92915050565b6105df81610578565b81146105ea57600080fd5b50565b6000813590506105fc816105d6565b92915050565b60008060408385031215610619576106186104e8565b5b6000610627858286016105ed565b9250506020610638858286016105ed565b9150509250929050565b600060208284031215610658576106576104e8565b5b6000610666848285016105ed565b91505092915050565b600060408201905061068460008301856105ac565b6106916020830184610582565b9392505050565b600082825260208201905092915050565b7f3145544820726571756972656400000000000000000000000000000000000000600082015250565b60006106df600d83610698565b91506106ea826106a9565b602082019050919050565b6000602082019050818103600083015261070e816106d2565b9050919050565b60008115159050919050565b61072a81610715565b82525050565b600060608201905061074560008301866105ac565b6107526020830185610721565b61075f6040830184610582565b94935050505056fea2646970667358221220ab82d287a5631213837804e4740f941ee0438fb9eadc4f5da33418fa0ce5669964736f6c634300080e0033",
  "immutableReferences": {},
  "source": "// SPDX-License-Identifier: GPL-3.0\r\n\r\npragma solidity >=0.8.2 <0.9.0;\r\n\r\ncontract Game {\r\n    address payable owner;\r\n\r\n    mapping(address => uint256) public spaceHighscores;\r\n    mapping(address => uint256) public pacmanHighscores;\r\n    mapping(address => uint256) public snakeHighscores;\r\n\r\n    event startedGame(address player, bool paid, uint256 game);\r\n    event endedGame(address player, uint256 score);\r\n\r\n    constructor() {\r\n        owner = payable(msg.sender); // 'msg.sender' is sender of current call, contract deployer for a constructor\r\n    }\r\n\r\n    function getOwner() external view returns (address) {\r\n        return owner;\r\n    }\r\n\r\n    function startGame(uint256 game) public payable {\r\n        require(msg.value == 1 ether, \"1ETH required\");\r\n        owner.transfer(msg.value);\r\n        emit startedGame(msg.sender, true, game);\r\n    }\r\n\r\n    function endGame(uint256 game, uint256 score) public {\r\n        if (game == 0) {\r\n            if (score > spaceHighscores[msg.sender]) {\r\n                spaceHighscores[msg.sender] = score;\r\n            }\r\n        } else if (game == 1) {\r\n            if (score > pacmanHighscores[msg.sender]) {\r\n                pacmanHighscores[msg.sender] = score;\r\n            }\r\n        } else if (game == 2) {\r\n            if (score > snakeHighscores[msg.sender]) {\r\n                snakeHighscores[msg.sender] = score;\r\n            }\r\n        }\r\n        emit endedGame(msg.sender, score);\r\n    }\r\n}\r\n",
  "sourcePath": "C:\\Users\\Don Mattington\\Desktop\\DAPP 2\\DAPP\\Contract\\contracts\\Game.sol",
  "compiler": {
    "name": "solc",
    "version": "0.8.14+commit.80d49f37.Emscripten.clang"
  },
  "schemaVersion": "3.4.16",
  "updatedAt": "2023-12-08T08:26:06.061Z",
  "devdoc": {
    "kind": "dev",
    "methods": {},
    "version": 1
  },
  "userdoc": {
    "kind": "user",
    "methods": {},
    "version": 1
  }
}